:020000040800F2
:1000000040BF0020FD0200082D2100089D1E0008B1
:10001000292100087B190008352D00080000000088
:100020000000000000000000000000003D02000889
:10003000971B00080000000099020008AF2100088B
:100040001703000817030008170300081703000828
:100050001703000817030008170300081703000818
:100060001703000817030008170300081703000808
:1000700017030008170300081703000817030008F8
:1000800017030008170300081703000817030008E8
:1000900017030008170300081703000817030008D8
:1000A00017030008170300081703000817030008C8
:1000B0001703000869220008170300081703000847
:1000C00017030008170300081703000817030008A8
:1000D00017030008AD2C00081703000817030008D9
:1000E0001703000817030008170300081703000888
:1000F0001703000817030008170300081703000878
:100100001703000817030008170300081703000867
:100110001703000817030008170300081703000857
:100120001703000817030008170300081703000847
:1001300000F002F800F072F80AA090E8000C824487
:100140008344AAF10107DA4501D100F067F8AFF264
:10015000090EBAE80F0013F0010F18BFFB1A43F0A5
:10016000010318479CCF0300BCCF03000A444FF0A3
:10017000000C10F8013B13F0070408BF10F8014B06
:100180001D1108BF10F8015B641E05D010F8016B4B
:10019000641E01F8016BF9D113F0080F1EBF10F8AF
:1001A000014BAD1C0C1B09D16D1E58BF01F801CBD2
:1001B000FAD505E014F8016B01F8016B6D1EF9D555
:1001C0009142D6D37047000000230024002500266A
:1001D000103A28BF78C1FBD8520728BF30C148BFAA
:1001E0000B607047662935F0B483642900F068819C
:1001F000782900F0A181732900F02986002070473A
:100200001FB535F0A1FB00F05BFE040000200021CB
:1002100035F036F9E0601FBD10B510BD00F050FF9D
:100220001146FFF7EDFF2CF08FF900F06EFF03B4DD
:10023000FFF7F2FF03BC04F0B3FE00002C4B19687B
:100240000868B0E8F04F80F30988BFF36F8F4FF074
:10025000000080F311887047000000000848006823
:10026000006880F308884FF0000080F3148862B6BD
:1002700061B6BFF34F8FBFF36F8F00DF00BF00BFCA
:1002800008ED00E0DFF80C00016841F47001016046
:10029000704700BF88ED00E0EFF30980BFF36F8F78
:1002A000134B1A681EF0100F08BF20ED108A20E9CA
:1002B000F04F106009B44FF0500080F31188BFF385
:1002C0004F8FBFF36F8F34F02FF94FF0000080F3A2
:1002D000118809BC19680868B0E8F04F1EF0100FCB
:1002E00008BFB0EC108A80F30988BFF36F8F7047A6
:1002F00054020020EFF30580704700000948804752
:1003000009480047FEE7FEE7FEE7FEE7FEE7FEE7F7
:10031000FEE7FEE7FEE7FEE704480549054A064B0F
:1003200070470000C12100083101000840B70020DB
:1003300040BF002040BB002040BB0020704753EA74
:10034000020C00F069802DE9F04B4FF00006002B05
:100350001FBFB3FA83F503FA05F424FA05F65E40ED
:1003600012BF1643B2FA82F502FA05F4C5F1200570
:100370001EBF22FA05FC44EA0C04203556EA044C60
:100380004FEA144418BF641C4FF000084FF00009F6
:10039000904271EB030C39D3002919BFB1FA81F7F0
:1003A00001FA07F6B0FA80F700FA07F6C7F120075E
:1003B0001EBF20FA07FC46EA0C062037B6FBF4FC09
:1003C000A7EB0507103F07F01F0BCBF120060CFA37
:1003D0000BFB2CFA06F644BFB3460026202FA4BF21
:1003E0005E464FF0000B5BEA060C08BF4FF0010BB6
:1003F00019EB0B09ABFB027C48EB0608C01B06FBA4
:1004000002CC0BFB03CC71EB0C01C1E70B4602469F
:1004100041464846BDE8F08B13B54FF000004FF061
:100420000001AFF30080BDE81C4070470FB40449E1
:1004300010B503AA029800F00FFD10BC5DF814FB84
:10044000140000200FB41CB5074B06AA7B44694674
:100450000090059800F0D1FC0020694600F0E0FC17
:100460001CBC5DF814FB0000D109000070B50C46FF
:100470000546012A05D02878800600D5EA690023C0
:1004800002E0012305E05B1C934202D2E05C0028FD
:10049000F9D1A869E618C01AA861286A1844286228
:1004A0002846AFF3008004E0D5E9012114F8010BE0
:1004B0009047B442F8D32846AFF3008070BD0000E7
:1004C0002DE9F0410646002410687529314616A52D
:1004D00010D0AFF30080002802DA404213A507E0F5
:1004E00031688A0701D512A502E0490704D511A594
:1004F000012401E0AFF3008000210A2206F1240765
:1005000009E0B0FBF2FCB0FBF2F302FB1C00303060
:1005100078541846491C0028F3D123462A46304611
:10052000BDE8F04100F0FEB9000000002D00000021
:100530002B0000002000000070B504460D46214647
:100540001068AFF300802188090502D50F4A7A446C
:1005500002E00E4A7A440E32002104F1240305E041
:1005600000F00F060009965D5E54491C0028F7D183
:1005700020780023000704D5702D02D009B1022392
:1005800011322046BDE8704000F0CCB9F2C403003F
:100590002DE9F05F894604464FF0000ADFF824B1E8
:1005A000FB44C0F820A02046E168884700287DD0A1
:1005B000252806D0D4E901219047206A401C2062FA
:1005C000F1E700255F462046E16888472028064677
:1005D00007DB312E05D2B81910F8200C08B10543FD
:1005E000F1E7A80701D525F00405C4F81CA00027F1
:1005F000C4F818A02A2E09D0304602F0D3FB38B335
:1006000004EB8708303EC8F8186019E059F8041B5D
:10061000204604EB87029161E1688847012F064676
:1006200018D1E069002820DA25F020051DE0D8F86F
:10063000180000EB800006EB40003038C8F81800C6
:100640002046E1688847064602F0ACFB0028EED160
:10065000012F0AD02E2E08D12046E16888477F1C42
:100660000646022F45F02005C4DBA069002803DA06
:10067000404245F00105A061E80701D025F01005D2
:10068000A6B1A6F14100192802D8203645F400652C
:100690004A463146204625604D46FFF7A3FD60B12E
:1006A000012807D0ED1D25F0070000E007E000F16C
:1006B000080978E705F1040975E730467AE7206A0A
:1006C000BDE8F09FC8C4030040EA0103024630B50C
:1006D0009B0710D14FF0013400E008C208C91D1B70
:1006E0009D4315EAC41FF8D013F0FF0102F8011B67
:1006F0000DD01B0AF8E711F8013B002B02F8013B73
:1007000005D011F8013B002B02F8013BF3D130BDBD
:1007100010B5431C02E010F8011B71B18107FAD13A
:100720004FF0013202C88C1A8C4314EAC211F9D07E
:10073000C01A0A0603D0C01E10BDC01A10BD0A049C
:1007400001D0801E10BD0902FCD0401E10BD032A3E
:1007500040F2308010F0030C00F0158011F8013BDE
:10076000BCF1020F624498BF11F801CB00F8013BC5
:1007700038BF11F8013BA2F1040298BF00F801CB89
:1007800038BF00F8013B11F0030300F02580083A60
:10079000C0F0088051F8043B083A51F804CBA0E8B7
:1007A0000810F5E7121D5CBF51F8043B40F8043B0C
:1007B000AFF30080D20724BF11F8013B11F801CB41
:1007C00048BF11F8012B24BF00F8013B00F801CB12
:1007D00048BF00F8012B704710B5203AC0F00B80DD
:1007E000B1E81850203AA0E81850B1E81850A0E835
:1007F0001850BFF4F5AF5FEA027C24BFB1E818508F
:10080000A0E8185044BF18C918C0BDE810405FEAFE
:10081000827C24BF51F8043B40F8043B08BF70477A
:10082000D20728BF31F8023B48BF11F8012B28BF7F
:1008300020F8023B48BF00F8012B704702F0FF038D
:1008400043EA032242EA024200F01ABB4FF00002E0
:1008500000B5134694469646203922BFA0E80C50B6
:10086000A0E80C50B1F12001BFF4F7AF090728BF91
:10087000A0E80C5048BF0CC05DF804EB890028BF0D
:1008800040F8042B08BF704748BF20F8022B11F036
:10089000804F18BF00F8012B704700004FF0013C5B
:1008A00050F8042B51F8043B9A4221D1A2EB0C03DF
:1008B000934313EACC1317D150F8042B51F8043B9F
:1008C0009A4215D1A2EB0C03934313EACC130BD13C
:1008D00050F8042B51F8043B9A4209D1A2EB0C03C7
:1008E000934313EACC13DBD04FF00000704700BFF6
:1008F000D01A01BAB1FA81F101F0180122FA01F01F
:10090000CB40C1F12001DBB2C0B2C01A2CFA01F316
:10091000D11A914311EAC311E6D17047704770476D
:10092000704770472DE9F0470D46994692460446B8
:1009300000F124080168880604D5E06921F010015F
:10094000216000E00120A84201DD471B00E00027F4
:10095000A1697A1902EB0900081AA0612078C00683
:1009600002D42046AFF30080002608E0D4E901213C
:100970001AF806009047206A401C761C20624E45FB
:10098000F4DB2078C0060AD52046AFF3008006E0ED
:10099000D4E9012130209047206A401C2062381E93
:1009A000A7F10107F4DC07E0D4E9012118F80500FC
:1009B0009047206A401C2062281EA5F10105F3DC47
:1009C0002046AFF300802078000602D50220BDE863
:1009D000F0870120FBE770472DE9FF4F0C461E46CC
:1009E0004FF0FF378BB0D2E90001DDF860800A904C
:1009F0008A46C1F30A5505B93D46002108464FF025
:100A00000000BAF1000F00F4400005DA00EB8000AE
:100A10004FF4400101EA50004FEA9059B9F1010F3B
:100A200000DDB9460A9850EA4A000ED044F610504C
:100A3000A5F2FF3545432F14B8F1000F1ED07542C3
:100A4000291E1EDDC9F100021CE0B8F1010F4FF0B4
:100A5000000001D0302103E0F24305E02154401CA6
:100A6000B042FBDB30460022002121540B99C1F833
:100A70000880C1E900200FB0BDE8F08FBD1B6D1CE0
:100A8000DEE74A4600DA694206A800F0A3FA06ABA0
:100A900093E8070003AB83E8070050460A9900F08B
:100AA0003DFB8DE80700A0F500501F38009003982B
:100AB000002D09DD42F21F014A46084403A90390B4
:100AC000684600F09CFD08E0A0F500504A461F383B
:100AD00003A90390684600F0A6FD8DE80700000416
:100AE000000C03D04FF0FF30410800E01046B8F191
:100AF000000F03D00022009215461EE0751E05D49B
:100B000000F0E2F9303262556D1EF9D5B34601228C
:100B1000084302D000227F1C04E02078302801D155
:100B200000227F1E002A099786D01DE0112D07DACA
:100B300000F0CAF9303262556D1C50EA0102F5D15D
:100B4000084302D00098C8B10EE00021681E05E0FD
:100B5000235C625C63542254401E491C8142F7DBD3
:100B6000AB46A81B401E0990002004F80B000B9810
:100B7000099AC0F80880C0E9002B7CE711264FF0E5
:100B8000000859E72DE9F04F88460446D21D22F0AF
:100B9000070191B0D1E90001CDE90A0102F0CCF8DA
:100BA00002460B98C00F01D02D2007E02068810776
:100BB00001D52B2002E0202101EAC000032A099080
:100BC00001D0072A05DB03464146204600F0C2F962
:100BD0000BE12078800601D5E06900E00620B8F13D
:100BE000650F814606D0B8F1660F18D0B8F1670FCF
:100BF00070D131E00020B9F1110F009001DB112319
:100C000001E009F101030AAA01A90CA8FFF7E4FE1B
:100C1000DDE90C70002609F10105834647E001205B
:100C20004B4600904FF000470AAA01A90CA8FFF715
:100C3000D3FEDDE90DB00C995D46002610B909F12F
:100C400001000D18B9EB050003D4C0F1FF3609F11E
:100C50000105A5EB09002BE0B9F1010F01DA4FF016
:100C600001090020B9F1110F0090484601DD112360
:100C700000E003460AAA01A90CA8FFF7ADFEDDE9D2
:100C80000C704D4600268346207800070AD4AB45F9
:100C900000DA5D4601A8012D04DD411911F8011C9F
:100CA000302907D04F4502DA17F1040F04DA01208A
:100CB00082460FE06D1EEEE7002F02DCED1B3E4486
:100CC00003E0781CA84200DD7D1CB81B00F1010A7E
:100CD0004FF000472078000703D4AA4501DB4FF00E
:100CE000FF3A0021B7F1004F0DF143088DF8431092
:100CF00024D002202B23002F01DA7F422D230A214A
:100D0000021EA0F1010000DC5FB197FBF1FC97FB34
:100D1000F1F201FB1C7C17460CF1300C08F801CDF8
:100D2000EEE7A8F1010003702188090501D54521EE
:100D300000E06521A0F1010800F8011C09980FA945
:100D4000A1EB0807FF1D00B10120411901EBEA707A
:100D5000A1693844081A401EA0612078C00602D458
:100D60002046AFF30080099828B1D4E901219047CB
:100D7000206A401C20622078C00622D52046AFF3AE
:100D800000801EE0002E04DBB34502DD01A8805D7B
:100D900000E03020D4E901219047206A401C206205
:100DA000761CAAF101005FEA000A0AD100F088F877
:100DB000C0680168405CD4E901219047206A401C6A
:100DC0002062281EA5F10105DCDC07E0D4E9012141
:100DD00018F8010B9047206A401C2062381EA7F1CA
:100DE0000107F3DC2046AFF30080032011B043E697
:100DF00001694A1C02610878704700B58FB0CDE9DF
:100E000001310021059105497944CDE903101146CE
:100E10006846FFF7BDFB0FB000BD0000E5FFFFFF18
:100E20000A6802F8010B0A60704710B5436913B1F4
:100E3000AFF3008001E0FFF719FB012010BD12782D
:100E400000F124010A7000224A700122EDE71168C6
:100E50004FF0FF32E9E70000074B70B50D467B44C9
:100E6000FFF7CBFF0446284600F022F910B14FF0FF
:100E7000FF3070BD204670BD570301004FF00002E7
:100E80000429C0F0128010F0030C3FF4E1ACCCF167
:100E9000040CBCF1020F18BF00F8012BA8BF20F80A
:100EA000022BA1EB0C01FFF7D3BC5FEAC17C24BF8E
:100EB00000F8012B00F8012B48BF00F8012B704708
:100EC00000487047FCB6002030B5B0F10A024FEA86
:100ED000900E71F100034EEA817EB0EB0E0061EBE3
:100EE00091014FEA101E4EEA017E10EB0E0041EB1D
:100EF00011114FEA102E4EEA016E10EB0E0041EB7D
:100F000011214FEA104E4EEA014E10EB0E0041EB5C
:100F10001141401841F100014FEAD00040EA417010
:100F20004FEAD10110EB80054FEA810444EA907446
:100F300044EB01046D1944EB0404521BA3414FF030
:100F4000000348BF0A3200D530BD401C41F100010A
:100F500030BD00002DE9F0411F460446032601681C
:100F6000072A01F4006004DB08B116A505E016A508
:100F700003E008B115A500E015A521F010002060E0
:100F8000A069C01EA0610FB1401EA0612046AFF352
:100F900000804FB1D4E9012138469047206A401CB7
:100FA0002062C01C206206E0206AFAE7D4E9012131
:100FB00015F8010B9047761EF8D22046AFF300805B
:100FC000BDE8F0814E414E006E616E00494E460014
:100FD000696E66002DE9F047814616468AB03348AF
:100FE00078440DC88DE80D0030487844801C03AC6F
:100FF0000DC884E80D0041F69B300844372190FB72
:10100000F1F290FBF1F5A5F1800501FB12041B3C08
:1010100002D56442012000E00020DFF890A0804665
:101020000027FA44AAF1BE0A0DE0E00709D03246D3
:10103000684607EB47010AEB810100F0F4FA8DE8FE
:10104000070064107F1C002CEFD1184F7F44AC3F89
:1010500018E0E80714D007EB04100DF1180A90E827
:101060000E008AE80E00C068F04201D1981908907D
:10107000324606A903A800F0D6FA03AB83E80700BE
:101080006D10641C002DE4D132466946B8F1000FA2
:1010900003A802D000F0B3FA01E000F0C4FAC9E9F5
:1010A0000001C9F808200AB0BDE8F08718BB0300AA
:1010B000007B00F08000704700487047DCB60020DD
:1010C0007546FFF7F9FFAE4605006946534620F026
:1010D0000700854618B020B5FFF71EF9BDE820408F
:1010E0004FF000064FF000074FF000084FF0000BE4
:1010F00021F00701AC46ACE8C009ACE8C009ACE897
:10110000C009ACE8C0098D46704710B50446AFF37E
:1011100000802046BDE81040FFF789B85FEA400C28
:1011200008BF91F0000F4FEA8C234FEAC12243EA37
:1011300051514FEA1C5018BF00F5F0404FEA300003
:1011400018BF41F000415FEA6C5C00F02980BCF1FF
:10115000FF3F08BF40F080407047130C06BF1204E9
:101160004FF0100C4FF0000C130E04BF12020CF1E4
:10117000080C130F04BF12010CF1040C930F04BFF1
:1011800092000CF1020CD30F04BF52000CF1010CC1
:1011900011464FF00002A0F11F00A0EB0C007047B9
:1011A00011F0004F08BF704731F000413FF4D5AF58
:1011B0000B0C06BF09044FF0100C4FF0000C0B0E87
:1011C00004BF09020CF1080C0B0F04BF09010CF15C
:1011D000040C8B0F04BF89000CF1020CCB0F04BF71
:1011E00049000CF1010CCCF12003A0EB0C0022FA19
:1011F00003F302FA0CF241EA030100F10100704727
:1012000020F07F4C80EA030023F07F47ACEB07031C
:1012100003F57C5300F0004003F1FF032DE9804902
:101220004FEA154B09B44FEA144325EA0B4E24EA62
:1012300003480FF2042606EB132749083E785FEABD
:10124000320203FB0667C7F5000707FB06F64FEA05
:1012500054374FEAD64606F1020607FB066CCCF17E
:10126000005C4FEA1C472CEA074C07FB06F40CFB1A
:1012700006F504EB15464FEA961634BF00204FF0F2
:1012800000404FEAD13706FB07FC4FEA1C4C0CFB31
:101290000BF7D21B03FB0CF761EB07010CFB0EF7FE
:1012A000B0EB074072EB17420CFB08F734BFA2EB20
:1012B0000742B2EB074261EB17414FEA0C444FEA99
:1012C000910706FB07FC4FEA1C4C0CFB0BF7B0EB3D
:1012D000C74072EB573203FB0CF734BFA2EBC74297
:1012E000B2EBC74261EB57310CFB0EF7B0EBC70016
:1012F00072EB57720CFB08F734BFA2EBC702B2EBDC
:10130000C70261EB5771039F4FEA816141EA921175
:1013100004EBCC044FEAD1374FEA826206FB07FCAC
:1013200042EA90124FEA80604FEA1C4C0CFB0BF72C
:10133000D21B03FB0CF761EB07010CFB0EF7B0EBC4
:10134000074072EB17420CFB08F734BFA2EB0742D1
:10135000B2EB074261EB17414FEA8C554FEA910718
:1013600004EB9C2406FB07FC4FEA1C4C0CFB0BF720
:10137000B0EBC74072EB573203FB0CF734BFA2EB64
:10138000C742B2EBC74261EB57310CFB0EF7B0EB33
:10139000C70072EB57720CFB08F734BFA2EBC70211
:1013A000B2EBC70261EB577115EB4C254FEA816137
:1013B00041EA92114FEA82624FEAD13742EA901233
:1013C00006FB07FC44F100044FEA80604FEA1C4C26
:1013D0000CFB0BF7D21B03FB0CF761EB07010CFBBB
:1013E0000EF7B0EB074072EB17420CFB08F734BF67
:1013F000A2EB0742B2EB074261EB174115EB1C155C
:101400004FEA813141EA92414FEA823242EA904208
:101410004FEA80304FEA0C7644F1000448EA034377
:101420004EEA0B484FF0000EB2EB080C71EB0307CD
:1014300024BF624639464EEB0E0E4FF0000B0018EB
:10144000524149414BEB0B0BB2EB080C71EB03071C
:101450007BF1000B24BF624639464EEB0E0E4FF077
:10146000000B0018524149414BEB0B0BB2EB080C3F
:1014700071EB03077BF1000B24BF624639464EEB4C
:101480000E0E51EA020718BF46F0010616EB0E7663
:1014900055F1000254F1000103D5BDE88901BDE812
:1014A0000088BDE88901BDE80048B619524141EB0A
:1014B0000101A3F10103704780807F7E7D7C7B7AF0
:1014C0007978777676757473727171706F6E6E6DF0
:1014D0006C6C6B6A6A696868676666656464636396
:1014E00062616160605F5F5E5E5D5D5C5C5B5B5A1C
:1014F0005A59595858575756565555555454535389
:1015000052525251515050504F4F4F4E4E4D4D4DE3
:101510004C4C4C4B4B4B4A4A4A494949484848472E
:10152000474747464646454545444444444343436C
:101530004342424242414141002B26D4770021D010
:101540001CB54FEA370703B44FF010004FF01001FD
:101550004FF000000FBCBDE810400BF1010BBBF1D8
:10156000010F08BF5FEA170722BF12F1010211F154
:1015700001014FF0004143F1000300F0004043EA55
:1015800000007047F9D35708DAE746EA064613F138
:10159000400F4FEA16461FDD13F1200FDFBF164341
:1015A0000A46002120335B42C8D0C3F1200746EA37
:1015B000064602FA07F74FEA164646EA0706C3F15F
:1015C000200722FA03F201FA07F721FA03F14FF09C
:1015D000000342EA0702B1E746EA020646EA064687
:1015E0004FEA164646EA0106BCBF46EA0646360CF6
:1015F0004FF000034FF000024FF000019EE72DE98D
:10160000C048934630B491E8380007C831EA400C2E
:1016100048BF34EA430C03D5FFF7F2FDFFF78CFF18
:10162000F0BCBDE800882DE9C048934630B491E88D
:10163000380007C810F0804F08BF13F0804F03D167
:1016400000F005F8FFF778FFF0BCBDE8008820F057
:101650007F4780EA030023F07F4C07EB0C03A3F5E0
:101660007C5300F00040A3F1FE0392F0000F00F065
:10167000B38095F0000F00F077802DE901494FEA23
:1016800011404FEA144621EA004800FB06FC24EA18
:10169000064708FB06F607FB08F800FB07F718EB00
:1016A00006484CEB164C4FEA124B18EB07484FEA32
:1016B00015464CEB174022EA0B4E0BFB06FC25EAC5
:1016C00006470EFB06F607FB0EFE0BFB07F71EEBAD
:1016D000064E4CEB164C4FF000061EEB074E4CEB43
:1016E000174B18EB0B0840F1000018EB0E0B58EBF2
:1016F000000840F100008F1A4FF000013CBFC943C1
:10170000661B14BFB5EB040C00213CBFC943F61B9C
:101710004FEA17444EEA8E0E27EA04454FEA1C476B
:1017200004FB07622CEA074C05FB07F70CFB05F6E8
:1017300004FB0CFC16EB074642EB174216EB0C467B
:1017400042EB1C421BEB060658EB0202414146EA03
:101750009E0601D5BDE80189B619524141EB010150
:10176000A3F10103BDE801894FEA14454FEA11478F
:1017700024EA054621EA074C05FB07F406FB07F7B8
:101780000CFB06F105FB0CFC11EB074144EB174485
:101790004FEA124711EB0C4144EB1C4422EA074C80
:1017A00005FB07F206FB07F70CFB06F605FB0CFC36
:1017B00016EB074642EB174216EB0C4642EB1C4574
:1017C0006A1854F1000148BF7047B619524141EB05
:1017D0000101A3F10103704795F0000F37D04FEAE4
:1017E00011424FEA144721EA024624EA074C02FB61
:1017F00007F106FB07F70CFB06F402FB0CFC14EBED
:10180000074441EB17414FEA154714EB0C4441EBF9
:101810001C4125EA074C02FB07F506FB07F70CFB0A
:1018200006F602FB0CFC16EB074645EB174516EBDC
:101830000C4645EB1C42121951F1000148BF70479C
:10184000B619524141EB0101A3F1010370474FEA80
:1018500014454FEA114724EA054621EA074C05FBE7
:1018600007F106FB07F70CFB06F24FF0000605FB3D
:101870000CFC12EB074241EB174112EB0C4251EB0F
:101880001C4148BF7047921841EB0101A3F10103CD
:10189000704770B506460C46154608E03046721C87
:1018A00096B200F007F804F8010B681E85B2002D0F
:1018B000F4D170BD70B50446002600F081FB211202
:1018C000A02202EB4101C8B200F052FB00F0B2FBD3
:1018D0002546E11704EB11610912A4EB0121C8B2FE
:1018E00000F046FB00F0A6FB00F06AFBA12000F030
:1018F0003FFB00F09FFB002000F00EFB064600F0CF
:101900007FFB304670BD70B505460C46164606E0B6
:101910002178284600F009F8681C85B2641C301E46
:10192000A6F101018EB2F3D170BD70B504460E462A
:1019300000F046FB2546E11704EB11610912A022D5
:1019400002EB4101C8B200F013FB00F073FBE1179A
:1019500004EB11610912A4EB0121C8B200F008FBED
:1019600000F068FB304600F003FB00F063FB00F082
:1019700047FB0A2005F0DCFF70BD00BFFEE700005A
:1019800010B5002208210D4810F0FAFD00F0FEF815
:1019900001221146094810F0F3FD00F0F7F800228B
:1019A0000121064810F0ECFD00F0F0F801220821BA
:1019B000024810F0E5FD00F0E9F810BD001001400C
:1019C00010B540F204602DF075FA012303221021B6
:1019D000054810F06FFD082303221421024810F07F
:1019E00069FD00F08BF810BD0010014010B5012218
:1019F00008210A4810F0C4FD00F0C8F80122114681
:101A0000064810F0BDFD00F0C1F800220121034896
:101A100010F0B6FD00F0BAF810BD00000010014053
:101A200070B505460024002618E06006040E012269
:101A300011460F4810F0A4FD00F0A8F808210C484A
:101A400010F096FD08B1601CC4B2002201210848C4
:101A500010F096FD00F09AF8701CC6B2082EE4DB78
:101A600015B9FFF7C3FF01E0FFF78AFF204670BDFD
:101A70000010014070B50446002516E0E209082177
:101A80000E4810F07DFD00F081F8012211460B4850
:101A900010F076FD00F07AF800220121074810F0DE
:101AA0006FFD6006040E681CC5B2082DE6DB01223E
:101AB0000821024810F064FD70BD000000100140D4
:101AC00010B5012208210C4810F05AFD01221146E0
:101AD000094810F055FD00F059F800220821064889
:101AE00010F04EFD00F052F800220121024810F0E3
:101AF00047FD00F04BF810BD0010014010B500226A
:101B000008210A4810F03CFD00F040F8012211467F
:101B1000064810F035FD00F039F80122082103488D
:101B200010F02EFD00F032F810BD00000010014052
:101B300070B50024002501220821134810F020FD73
:101B400000F024F8012211460F4810F019FD00F0B2
:101B50001DF809E0601CC4B2FA2C03DDFFF7CEFFCC
:101B6000012507E000F012F80821074810F000FDF9
:101B70000028EFD100BF00220121034810F000FD32
:101B800000F004F8284670BD0010014010B5022096
:101B900005F0DAFE10BD70471CB540F204602DF070
:101BA00089F94FF40053032210211D4810F082FCE4
:101BB0000223032248211A4810F07CFCFFF700FFA3
:101BC00000224FF40051164810F0DAFC322005F0E4
:101BD000AFFE01225103124810F0D2FC322005F072
:101BE000A7FE0223032204210D4810F063FC6420A9
:101BF00005F09EFE0422694648F2401000F01CF8F1
:101C000000208DF80400694606A0FEF70FFC08A12D
:101C10006846FEF743FE08B900201CBD0120FCE722
:101C2000001001404354502049443A25730D0A00E6
:101C300031313538000000002DE9F04105460F46EE
:101C40001646FFF73DFF2820FFF714FFFFF770FF50
:101C50002812FFF70FFFFFF76BFFE8B2FFF70AFF4D
:101C6000FFF766FFFFF72CFF2920FFF703FFFFF7C1
:101C70005FFF00240BE0711EA14201D0012100E0B2
:101C800000210846FFF7CCFE3855601CC4B2B442B0
:101C9000F1DBFFF733FFBDE8F081000031B582B022
:101CA0000024002563480078401C624908700846FB
:101CB00000780A2190FBF1F201FB120018B15D4897
:101CC00000780A287DDA012202A948F24E10FFF7B7
:101CD000B3FF9DF8080000F00F0000286BD09DF8BE
:101CE000080000F00F00062865DA9DF8080000F0F3
:101CF0000F01FF208840C0B200909DF80000C04353
:101D0000C0B240F0C0004C4981F82000002444E0FB
:101D1000494890F820000121A140084020B34749DC
:101D200031F81400042201A9FFF786FF424890F819
:101D3000300000F00100C0B19DF804009DF80510CE
:101D400000EB012081B23C48163020F814109DF8B9
:101D500006009DF8071000EB0120C0F5487081B225
:101D600035480C3020F8141015E09DF804009DF85B
:101D7000051000EB012081B22F480C3020F8141020
:101D80009DF806009DF8071000EB012081B22A485B
:101D9000163020F81410601CC4B2052CB8DB0125E5
:101DA0002548808920B92448C08A08B900200290BB
:101DB0000020204908709DF8080000F0800000B164
:101DC00000E00DE09DF8080000F00F00062807DA9B
:101DD000002000900122694648F24E1000F030F8D1
:101DE0009DF8080000F08F0080281AD1124890F862
:101DF000200000F0800040B10F4890F8200020F053
:101E000080000D4981F820000BE04FF6FF700A4971
:101E10008881C882084690F8200000F0E00081F830
:101E2000200004480078F02802DD0A2001490870EB
:101E300028463EBD1E00002020000020D688030852
:101E40002DE9F04104460E4617464FF00008FFF713
:101E500037FE2820FFF70EFEFFF76AFE2012FFF77D
:101E600009FEFFF765FEE0B2FFF704FEFFF760FE34
:101E700000250BE0705DFFF7FDFDFFF759FE804682
:101E8000B8F1000F00D003E0681CC5B2BD42F1DB21
:101E900000BFFFF733FE4046BDE8F08100BFFEE71C
:101EA00010B500224FF400610D4810F069FB00F0FE
:101EB000EFF8012211030A4810F062FB00F0E8F885
:101EC00000224FF48051064810F05AFB00F0E0F871
:101ED0000122D102024810F053FB00F0D9F810BDE6
:101EE0000010014010B50122D1020A4810F048FB51
:101EF00000F0CEF801221103064810F041FB00F07B
:101F0000C7F800224FF48051024810F039FB00F06E
:101F1000BFF810BD0010014070B505460024002632
:101F20001AE06006040E01221103104810F028FB8D
:101F300000F0AEF84FF400610C4810F019FB08B146
:101F4000601CC4B200224FF48051084810F018FB06
:101F500000F09EF8701CC6B2082EE2DB15B9FFF740
:101F6000C1FF01E0FFF79CFF204670BD001001405B
:101F700070B50446002518E0E2094FF400610F48EF
:101F800010F0FEFA00F084F8012211030B4810F063
:101F9000F7FA00F07DF800224FF48051074810F066
:101FA000EFFA6006040E681CC5B2082DE4DB0122BE
:101FB000D102024810F0E4FA70BD000000100140A8
:101FC00010B50122D1020D4810F0DAFA01221103F6
:101FD0000A4810F0D5FA00F05BF800224FF40061D7
:101FE000064810F0CDFA00F053F800224FF480516B
:101FF000024810F0C5FA00F04BF810BD0010014087
:1020000010B500224FF40061094810F0B9FA00F051
:102010003FF801221103064810F0B2FA00F038F838
:102020000122D102024810F0ABFA00F031F810BDE5
:102030000010014070B5002400250122D102134890
:1020400010F09EFA00F024F8012211030F4810F05E
:1020500097FA00F01DF807E0601CC4B2FA2C03DD0B
:10206000FFF7CEFF012506E04FF40061074810F0AE
:102070007FFA0028F0D100BF00224FF480510348BE
:1020800010F07EFA00F004F8284670BD0010014000
:1020900010B5022005F058FC10BD000010B540F24C
:1020A00002602CF007FF012303222821084810F0CA
:1020B00001FA4FF4005303224821054810F0FAF9C1
:1020C0004FF4004303224821014810F0F3F910BDFA
:1020D0000008014010B540F202602CF0EBFE40F227
:1020E00005602CF0E7FE4FF48073032210210C48AA
:1020F00010F0E0F90423032210210A4810F0DAF965
:1021000000BF01221102064810F0CFF900BF00BF46
:1021100001220421034810F0C8F900BF10BD0000DF
:10212000000801400014014000BFFEE770470000B6
:1021300010B504460020094908600949C1F8BC01EE
:102140000649091D086001200549C1F8B40120466F
:102150002EF068F801200149086010BDB0812142CD
:102160000080214210B5044600200A490860012081
:102170000949C1F8BC0100200649091D0860012079
:102180000549C1F8B40120462EF04CF80120014960
:10219000086010BDB08121420080214210B5044684
:1021A0002012FFF7DFFFE0B2FFF7DCFF10BD10B534
:1021B00032F0FAFD012801D032F0C0FB10BD000062
:1021C00008B52648006840F4700024490860244897
:1021D000006840F001002249086000BF2048006804
:1021E00000F002000028F9D000BF1D48406840F010
:1021F00080001B4948600020009002E00098401CCD
:10220000009000985028F9D31548406840F090009D
:10221000134948600020009002E00098401C0090A4
:1022200000985028F9D300BF0D48406820F0030003
:102230000B494860084600680A4908400849086098
:102240004FF41F0088600846006820F48020086072
:1022500000204860C8622FF0EDFF08BD88ED00E067
:1022600000100240FFFFF6FE10B50121074831F0D3
:1022700048F9012809D100BF0421054810F087F969
:1022800000BF0121014831F039F910BD00040040C0
:102290000014014070B52DED048B88B00546B0EEFA
:1022A000408AF0EE608AB0EE419AF0EE619A002426
:1022B00033E035F82430621C3DA103A8FEF7C2F8D4
:1022C0004FF4784003A91022CDE9002102903A484A
:1022D0004388028804EB8400A02606EB80012820B6
:1022E00012F09EFD05EB84004388621C33A103A815
:1022F000FEF7A8F84FF4784003A91022CDE9002199
:1023000002902D484388028804EB840006EB80018C
:10231000782012F085FD601CC4B2052CC9DB4FF695
:10232000FF70009024480088401E82B204EB8400B5
:10233000A02303EB80011023282012F047FB53EC6D
:10234000182B20A103A8FEF77DF800208DF81300BC
:102350004FF4784003A91022CDE9002102901648DD
:102360004388028804EB8400A02606EB8001282025
:1023700012F056FD53EC192B15A103A8FEF762F8D5
:1023800000208DF813004FF4784003A91022CDE906
:102390000021029008484388028804EB840006EB81
:1023A0008001782012F03CFD08B0BDEC048B70BDBC
:1023B0007825643A25640000B80300207925643A42
:1023C0002564000070783A25302E32660000000047
:1023D00070793A25302E3266000000002DE9F04F6A
:1023E0002DED088B8BB04FF000080020059000BF4A
:1023F0004FF6FF7012F0BEF84FF47840EE490968CE
:1024000010226423CDE900210290A0222821084651
:1024100012F006FD4FF478421421084600F0ECF962
:102420000020E64981F820009FEDE50A084680ED8E
:10243000090ABDE1E148416801208847DF4890F87A
:10244000200000F0C00040287ED100200590DB482D
:1024500090F8200020F04000D84981F8200008467C
:10246000808906A921F82800D448C08A01EB880198
:10247000488008F1010000F0FF08B8F1060F13D200
:10248000DFE808F0120313263C514FF6FF721421C7
:10249000084600F0B1F9CB490988143988B24FF4E5
:1024A0007842142100F0A8F972E1C649098814396C
:1024B00088B24FF6FF72142100F09EF9C14840889F
:1024C000143881B24FF47842142000F095F95FE19E
:1024D000BC484088143881B24FF6FF72142000F0D7
:1024E0008BF9B84A5288143A91B2B64A1288143A13
:1024F00090B24FF4784200F07FF949E14FF6FF7057
:1025000012F038F8AF4AB2F8029009EBD9725110C4
:10251000AC4AB2F800A00AEBDA7250104FF47842DD
:1025200000F06AF934E1BDF81C00BDF81810401A3B
:1025300004B2BDF82400BDF82010401A06B2BDF860
:102540002610BDF81E0000E023E1081A05B2BDF810
:102550002200BDF81A10401A07B2304633F016F9BF
:1025600041EC1A0B204633F011F941EC1B0B53ECF4
:102570001A2B32F0B3FF41EC180B384633F006F952
:1025800041EC1A0B284633F001F941EC1B0B53ECDC
:102590001A2B32F0A3FF41EC190B9FED8B0B53EC80
:1025A000102B51EC180B33F009F905D251EC180B34
:1025B00032F07CFF41EC180B9FED830B53EC102B9A
:1025C00051EC190B33F0FAF805D251EC190B32F03B
:1025D0006DFF41EC190B9FED7E0B53EC102B51EC72
:1025E000180B33F0EBF862D39FED7B0B53EC102B01
:1025F00051EC180B33F072F959D39FED750B53EC76
:10260000102B51EC190B33F0D9F850D39FED720B0E
:1026100053EC102B51EC190B33F060F947D30094B5
:10262000002C01DB009801E000984042B0F5805F8B
:102630003DDA0195002D01DB019801E0019840424F
:10264000B0F5805F33DA0296002E01DB029801E0DC
:1026500002984042B0F5805F29DA0397002F01DB32
:10266000039801E003984042B0F5805F1FDA0494BC
:10267000002C01DB049801E004984042B8B1B5F1A8
:10268000000B01DB584601E0CBF1000078B1B6F158
:10269000000A01DB504601E0CAF1000038B1B7F191
:1026A000000901DB484601E0C9F1000018BB4FF00A
:1026B0000008444AB2F8029009EBD9725110414A1D
:1026C000B2F800A00AEBDA7250104FF6FF7200F079
:1026D00093F84FF478421421084600F08DF8B0EEDC
:1026E000491AF0EE691AB0EE480AF0EE680A06A838
:1026F000FFF7D0FD5CE0A01900EE100AF8EEC00A6A
:10270000304800882838400000EE100AB8EEC00AB1
:1027100080EE801A294880ED091AE81900EE100AA7
:10272000F8EEC00A274840882838400000EE100A1A
:10273000B8EEC00A80EE801A204880ED0A1ABDF873
:10274000280000B21D498885BDF82A0000B2C8855E
:102750004FF6FF7011F00EFF1F2021A11022CDE9CE
:10276000002102901748438802886E21232012F02E
:1027700057FB4FF47A7005F0DBF800F0C7F94FF61D
:10278000FF7011F0F7FE0BB0BDEC088BBDE8F08FC9
:1027900000BF0A2005F0CCF80598401C80B20590D7
:1027A0000598B0F57A7F02DD00F062F801E000BF25
:1027B00040E600BF00BFE6E7E088030820000020F5
:1027C00000000000B803002000000000000000002E
:1027D000666666666666EE3FCDCCCCCCCCCCF03F70
:1027E000546F7563682053637265656E2041646A37
:1027F000757374204F4B2100F8B504460D461646FC
:1028000004F10D018AB2193988B22B462946009687
:1028100011F095FF05F10D0083B2193881B22246FF
:102820002046009611F08BFF6A1C91B2621C90B298
:10283000324611F0DAFF6A1C91B2621E90B2324643
:1028400011F0D3FF6A1E91B2621C90B2324611F0B1
:10285000CCFF6A1E91B2621E90B2324611F0C5FFE3
:10286000334606222946204611F014FFF8BD000029
:1028700070B5084C00250C2221462820FFF709F8E6
:102880003420FFF717F805460A2D01D1012070BD4D
:102890000020FCE74400002010B50020114981F819
:1028A0003000084690F830000F49897901F00101A5
:1028B00008430C4981F830000B48808847F2967134
:1028C00088420DD1FFF768F9084806494860084674
:1028D00090F8300040F0800081F83000002010BDFA
:1028E0000020FCE720000020B80300209D1C000809
:1028F00070B50646002500240022012127480FF06C
:102900003FFE0022082125480FF03AFE00224FF436
:10291000005122480FF034FE304600F09DF90620A9
:1029200005F012F8002201211C480FF029FE0120B9
:1029300005F00AF80122114618480FF021FE012087
:1029400005F002F80022012114480FF019FE00BF23
:1029500019E04FF6FF7000EA4404002201210F48FD
:102960000FF00EFE012004F0EFFF012211460B488C
:102970000FF006FE042109480FF0FAFD08B1601CB3
:1029800084B2681CC5B2102DE3DB2411012251036F
:1029900002480FF0F5FD204670BD00000010014018
:1029A0002DE9FE4380460027002406E04046FFF75D
:1029B0009FFF2DF81400601C84B2052CF6DB002468
:1029C00016E0601C85B20FE03DF814003DF81510CC
:1029D000884207DD3DF814603DF815002DF814001D
:1029E0002DF81560681C85B2052DEDDB601C84B2E6
:1029F000042CE6DB0027012405E03DF814003844F0
:102A000087B2601C84B2042CF7DB032097FBF0F044
:102A100086B23046BDE8FE832DE9F04106460F46FA
:102A20000D4890F8300000F0010040B19020FFF711
:102A3000B7FF0546D020FFF7B3FF044607E0D020DC
:102A4000FFF7AEFF05469020FFF7AAFF044635804A
:102A50003C80BDE8F0810000200000207FB50446E6
:102A60000D4602A903A8FFF7D7FF694601A8FFF7A3
:102A7000D3FFBDF80400BDF80C10884206DCBDF899
:102A80000C10BDF80400323081420CDBBDF80C00A4
:102A9000BDF80410884237DCBDF80410BDF80C0006
:102AA0003230814230DABDF80000BDF808108842AB
:102AB00006DCBDF80810BDF80000323081420CDBA6
:102AC000BDF80800BDF8001088421DDCBDF80010FC
:102AD000BDF808003230814216DABDF80C10BDF89E
:102AE0000420881800EBD071C1F34F012180BDF89C
:102AF0000810BDF80020881800EBD071C1F34F0119
:102B00002980012004B070BD0020FBE710B5054C02
:102B10000C2221462820FEF7F6FE0A213420FEF77B
:102B200004FF10BD4400002010B5044602214748B0
:102B30000FF01EFD002865D12CB14549A1F10A0016
:102B4000FFF78CFF4CE04249A1F10A00FFF786FF36
:102B5000F0B33F49163989893D4A163A928D891A50
:102B600009B200EE101AB8EEC00A3949163991EDD3
:102B7000091AC0EE010A3749088800EBD0714910E4
:102B800000EE101AB8EEC00A30EE800ABCEEC00AA1
:102B900010EE101A2E4A163A91811146C98AD28D2A
:102BA000891A09B200EE101AB8EEC00A284916397F
:102BB00091ED0A1AC0EE010A2649488800EBD0714F
:102BC000491000EE101AB8EEC00A30EE800A00E09C
:102BD00006E0BCEEC00A10EE101A1D4A163AD18269
:102BE0001B48163890F8200000F0800038BBC02049
:102BF0001749163981F82000084681898182C18AE7
:102C0000C1831CE01248163890F8200000F08000C4
:102C100050B10F48163890F8200020F080000C4981
:102C2000163981F820000AE000210948163881820F
:102C3000C1834FF6FF70064916398881C88204485F
:102C4000163890F8200000F0800010BD0010014000
:102C500036000020B803002070B50446002500BFF0
:102C60001EE004F0800028B1012208210E480FF078
:102C700087FC04E0002208210B480FF081FC60066D
:102C8000040E0022012108480FF07AFC012004F014
:102C90005BFE0122114604480FF072FC681CC5B2AD
:102CA000082DDEDB70BD00000010014010B51D498D
:102CB0001D4831F064F810B31B4830F0A3FFC4B2D4
:102CC0001A48008800F40040C8B91848008800F489
:102CD000804060B10A2C03D000201449088020E015
:102CE0001248008840F400401049088019E00D2C7B
:102CF00006D10E48008840F480400C49088010E05E
:102D00000A480088C0F30D0009490C5407480088A0
:102D1000401C0649088008460088C72801DD0020BD
:102D2000088010BD05030500003801401800002090
:102D3000F002002000BFFEE703B4019841000098B4
:102D400050EAC12018BF04204A0D18BF40F001000E
:102D500040F2FF72B2EB515F08BF40F00200012861
:102D600008BF052002B0704770B50446002508E092
:102D70002168481C20600878303805EB850100EB9D
:102D800041052168087800F004F80028F0D12846B1
:102D900070BD0146302903DB392901DC0120704771
:102DA0000020FCE730380A2801D2012070470020BB
:102DB0007047000010B54021074801F0E3FA0022F7
:102DC0000A21064828F00EFC0549086002F002FEC0
:102DD00000200449087010BDC4590020A15A000801
:102DE000DC010020D801002030B50346B1F90040D5
:102DF000B2F90050AC4202DDB1F9004001E0B2F995
:102E000000401C80B1F90240B2F90250AC4202DD30
:102E1000B1F9024001E0B2F902405C80B1F904402E
:102E2000B2F90450AC4202DAB1F9044001E0B2F95F
:102E300004409C80B1F90640B2F90650AC4202DA77
:102E4000B1F9064001E0B2F90640DC800120B3F997
:102E50000040B3F90450AC4205DCB3F90240B3F9C9
:102E60000650AC4200DD002030BDF8B504460D46EA
:102E700016460027B4F90000B5F90010884212DBAD
:102E8000B4F90200B5F9021088420CDBB4F9040071
:102E9000B5F90410884206DCB4F90600B5F906104D
:102EA000884200DC01270FB90020F8BD0EB90120CF
:102EB000FBE72088ADF800006088ADF802003246DC
:102EC0006946284600F0A7F808B90020EDE7A08879
:102ED000ADF800006088ADF8020032466946284629
:102EE00000F099F808B90020DFE72088ADF800006D
:102EF000E088ADF8020032466946284600F08BF8BB
:102F000008B90020D1E7A088ADF80000E088ADF84E
:102F1000020032466946284600F07DF808B90020D4
:102F2000C3E70120C1E70246B2F90000B1F904305D
:102F3000984213DCB2F90400B1F9003098420DDB7D
:102F4000B2F90200B1F90630984207DCB2F9060086
:102F5000B1F90230984201DB012070470020FCE704
:102F6000F8B504460D461646B4F90400B5F900104C
:102F7000884211DBB4F90600B5F9021088420BDB78
:102F8000B4F90000B5F90410884205DCB4F9020078
:102F9000B5F90610884201DD0120F8BD0EB9002008
:102FA000FBE72088ADF800006088ADF802003246EB
:102FB0006946284600F02FF808B10020EDE7A08808
:102FC000ADF800006088ADF8020032466946284638
:102FD00000F021F808B10020DFE72088ADF80000FC
:102FE000E088ADF8020032466946284600F013F842
:102FF00008B10020D1E7A088ADF80000E088ADF866
:10300000020032466946284600F005F808B1002063
:10301000C3E70120C1E72DE9FC5F05460E461446D3
:103020004FF0000AB6F90000B5F90010884213DB32
:10303000B6F90000B5F9041088420DDCB6F90200BB
:10304000B5F90210884207DBB6F90200B5F906109F
:10305000884201DC4FF0010ABAF1000F02D10020D2
:10306000BDE8FC9F002C01DC0120F9E7284613F0A5
:10307000B2F9834600EBDB704710284613F023F9C2
:10308000834600EBDB704FEA6008474501DA3846BB
:1030900000E0404681464C4500DD4C462888ADF8AE
:1030A00000002888204400B2ADF804006888ADF81C
:1030B00002006888204400B2ADF8060000223146C4
:1030C0006846FFF7A8FF80B1BDF80400204400B2B5
:1030D000ADF80400BDF80600204400B2ADF80600CB
:1030E0003146684624F030FABAE7E888001B00B29F
:1030F000ADF80200E888ADF80600002231466846C7
:10310000FFF789FF80B1BDF80400204400B2ADF89C
:103110000400BDF80200001B00B2ADF80200314609
:10312000684624F011FA9BE7A888001B00B2ADF8AE
:103130000000A888ADF80400002231466846FFF779
:103140006AFF80B1BDF80000001B00B2ADF80000BE
:10315000BDF80200001B00B2ADF80200314668461F
:1031600024F0F2F97CE76888ADF802006888204412
:1031700000B2ADF80600002231466846FFF74BFF6B
:1031800080B1BDF80000001B00B2ADF80000BDF832
:103190000600204400B2ADF806003146684624F02F
:1031A000D3F95DE701205BE710B5B1F90030B2F962
:1031B0000040A34202DAB1F9003001E0B2F9003078
:1031C0000380B1F90230B2F90240A34202DAB1F948
:1031D000023001E0B2F902304380B1F90430B2F9B3
:1031E0000440A34202DDB1F9043001E0B2F9043039
:1031F0008380B1F90630B2F90640A34202DDB1F98D
:10320000063001E0B2F90630C38010BD2DE9FF4160
:10321000044628F056F905460020039034B147498A
:10322000E0680860204628F0F5FA03E016F0B8F8E8
:103230004249086041490968086924F0D7F83F48C5
:103240000068406920B13D490968486924F0CEF81A
:103250003A490968C86924F0C9F838490968086A10
:1032600024F0C4F835480068006940B900203349AB
:103270000968A1F8500100BF00BFBDE8FF8124F03C
:1032800063FC24F0A9FB2D480068B0F85001002829
:103290004BD02A4800680068007CC0F34000E8B1C9
:1032A0002648006816F0FAF8401E06B22348006867
:1032B00016F08EF8401E07B23B460022114601A8C8
:1032C000009613F0CDF801A81C4909680968896BBC
:1032D00048601A48006805F055FC00BF4FF4807143
:1032E0001648006830301EF060F82021134800684E
:1032F00000F598701EF059F8002010490968A1F8EF
:103300005001284628F0D0F803900C480068006867
:10331000406A50B10949096808680849096809689C
:103320004B6A07490A68039998471DF041FD00F070
:103330003FF800F007F800BF9FE700009C00002066
:103340009800002010B5002416E0C4EBC4000C491E
:1033500051F8200030B1C4EBC401094A52F82100F1
:103360001DF0D8FDC4EBC401054A02EB81001C210D
:103370001EF01BF8601CC4B2042CE6DB10BD00007C
:10338000A05A00200146094A10680BE042688A42B0
:1033900002D002688A4204D1027E22F00102521C4D
:1033A000027640690028F1D17047000070000020CB
:1033B0007047000010B50421014800F0E3FF10BD84
:1033C000B859002010B51C21014800F0DBFF10BDEA
:1033D000D05900202DE9FF4F8BB004469A46199D25
:1033E000BAF1000F11D11898B0F5807F0DD10020EF
:1033F000208060800C98401E00B2A0800D98401E76
:1034000000B2E0800FB0BDE8F08FB5F90000404297
:10341000189948430121C1EB202000B22080B5F962
:1034200002004042189948430121C1EB202000B21C
:103430006080B5F900100C98401A18994843022191
:1034400001EB202000B2A080B5F902100D98401ABF
:1034500018994843022101EB202000B2E080BAF124
:10346000000F14D120882988084400B22080608889
:103470006988084400B26080A0882988084400B2A6
:10348000A080E0886988084400B2E080BAE70A209A
:103490009AFBF0F00A900A98401C09900A9800EBF9
:1034A0008000AAEB400B0A9800B228F025FC089097
:1034B000099800B228F020FC07900A985A3000B210
:1034C00028F01AFC069009985A3000B228F014FC33
:1034D0000590CBF10A0108984143079800FB0B10B7
:1034E0000A2190FBF1F6CBF10A01069841430598B9
:1034F00000FB0B100A2190FBF1F776117F11B4F954
:103500000080B4F9029007FB08F006FB1900298837
:1035100001EBA02000B2ADF8100006FB08F007FB9D
:103520000900698801EBA02000B2ADF81200B4F9DF
:103530000480B4F9029007FB08F006FB1900298803
:1035400001EBA02000B2ADF80C0006FB08F007FB71
:103550000900698801EBA02000B2ADF80E00B4F9B3
:103560000080B4F9069007FB08F006FB19002988D3
:1035700001EBA02000B2ADF8080006FB08F007FB45
:103580000900698801EBA02000B2ADF80A00B4F987
:103590000480B4F9069007FB08F006FB190029889F
:1035A00001EBA02000B2ADF8040006FB08F007FB19
:1035B0000900698801EBA02000B2ADF80600BDF952
:1035C0000800BDF91010884202DABDF9080001E0D8
:1035D000BDF91000BDF90410BDF90C20914202DACA
:1035E000BDF9041001E0BDF90C1088420BDABDF9F9
:1035F0000800BDF91010884202DABDF908000DE09C
:10360000BDF910000AE0BDF90400BDF90C108842B4
:1036100002DABDF9040001E0BDF90C002080BDF91B
:103620000800BDF91010884202DDBDF9080001E074
:10363000BDF91000BDF90410BDF90C20914202DD66
:10364000BDF9041001E0BDF90C1088420BDDBDF995
:103650000800BDF91010884202DDBDF908000DE038
:10366000BDF910000AE0BDF90400BDF90C10884254
:1036700002DDBDF9040001E0BDF90C00A080BDF938
:103680000A00BDF91210884202DABDF90A0001E011
:10369000BDF91200BDF90610BDF90E20914202DA03
:1036A000BDF9061001E0BDF90E1088420BDABDF934
:1036B0000A00BDF91210884202DABDF90A000DE0D5
:1036C000BDF912000AE0BDF90600BDF90E108842EE
:1036D00002DABDF9060001E0BDF90E006080BDF917
:1036E0000A00BDF91210884202DDBDF90A0001E0AE
:1036F000BDF91200BDF90610BDF90E20914202DDA0
:10370000BDF9061001E0BDF90E1088420BDDBDF9D0
:103710000A00BDF91210884202DDBDF90A000DE071
:10372000BDF912000AE0BDF90600BDF90E1088428D
:1037300002DDBDF9060001E0BDF90E00E08000BF2A
:1037400060E62DE9F74F86B0044620680590B4F98D
:1037500008100798A0EB0108B4F90A100898A0EB2C
:103760000109E089B0F5807F13D1206B00FB08F0E0
:10377000E16A01FB1901606A00EBA10BE06A00FB42
:1037800008F0216B01FB0901A06A00EBA100049085
:103790002FE0A08980B9A06B00FB08F04FEA601809
:1037A000A06B00FB09F04FEA6019606A00EB080BA0
:1037B000A06A484404901CE0A06B00FB08F04FEAAC
:1037C0006018A06B00FB09F04FEA6019206B00FB4A
:1037D00008F0E16A01FB1901606A00EBA12BE06AC5
:1037E00000FB08F0216B01FB0901A06A00EBA1209E
:1037F00004904FEA2B2604980712B4F90400B04253
:1038000003DC002009B0BDE8F08F002E01DA0020B3
:10381000F8E7B4F90600B84201DC0020F2E7002F17
:1038200001DA0020EEE73420005DC0F3800050B3E1
:103830003420005DC0F3400078B90225B4F90400DB
:103840007843684306FB050A059800EB0A012A46FF
:1038500004F114001DF04BFD2CE00325B4F9040025
:103860007843684306FB050A6A1E059800EB0A01C7
:1038700004F114001DF03BFD0AEB0500401E059904
:10388000095CA17516E04FF0000A0025208A034666
:103890003AB231B2019004F118001AF07BF90290AB
:1038A000BDF80800A0823AB231B204F118001AF053
:1038B000D1F8A0753420005D00F00100B0B14FF4E4
:1038C0007F40002100F47C4241EA5211C0F3C4025F
:1038D00011430191BDF8042011460291A08ABDF860
:1038E0000810884201D100208CE700BFE07C08B9B5
:1038F000012087E70FFA8BF1A187049801B2E187D5
:1039000031B24020015339B242200153C4F844A0DF
:1039100084F84850204600F003F80390039871E7BC
:103920002DE9F04F8DB00446D4F8009094F83C0097
:103930000C9094F83E000B900C9870280BDA4FF026
:10394000FF35B4F940002844002800DA00250C981F
:103950008030C7B213E00C9890280EDD0125B4F931
:1039600040002844B4F90410884200DB00250C987C
:10397000C0F1FF008030C7B201E00025FF270B989F
:1039800070280CDA4FF0FF36B4F9420030440028BA
:1039900000DA00260B98803000F0FF0815E00B9845
:1039A00090280FDD0126B4F942003044B4F9061026
:1039B000884200DB00260B98C0F1FF00803000F049
:1039C000FF0802E000264FF0FF08A08A0A90A07DC1
:1039D000069000200590049003903420005DC0F311
:1039E000800000285BD094F84800626C00FB052042
:1039F00000EB0901022209A81DF079FCA28894F8C5
:103A0000480012FB00F2606C02FB060000EB0901AB
:103A1000022208A81DF06BFCA28894F8480012FB53
:103A200000F2606C02FB060294F8480000FB0520DF
:103A300000EB0901022207A81DF059FC3420005DAB
:103A4000C0F3400000287ED094F84800616C00FB71
:103A500005110844401E19F800000590A18894F84B
:103A6000480011FB00F1606C01FB060194F848006E
:103A70000844401E19F800000490A18894F84800FA
:103A800011FB00F1606C01FB060194F8480000FB9B
:103A900005110844401E19F80000039053E0208AE5
:103AA0000090B4F942204020005B284401B204F1A8
:103AB0001800009B1AF06EF80990208A00904220AE
:103AC000005B304402B2B4F9401004F11800009BCE
:103AD0001AF060F80890208A00904220005B304481
:103AE00002B24020005B284401B204F11800009BA0
:103AF0001AF050F807903420005DC0F3400010B376
:103B0000B4F942204020005B284401B204F11800BF
:103B100019F0A0FF05904220005B304402B2B4F9D6
:103B2000401004F1180019F095FF04904220005B4A
:103B3000304402B24020005B284401B204F1180076
:103B400019F088FF0390BA46BB463420005DC0F3ED
:103B50004000E0B306987843C7F1FF0C059B03FBD8
:103B60000C00C0F3072104987843C7F1FF0C039BB6
:103B700003FB0C00C0F3072201FB08F0C8F1FF03B0
:103B800002FB0300030AA375022905DC022A03DCF9
:103B900000200DB0BDE8F08F022901DC4FF00008D5
:103BA000022A01DC4FF0FF080698022801DC4FF0E2
:103BB000000A0598022801DC4FF0FF0A0498022849
:103BC00001DC4FF0000B0398022803DC00E002E068
:103BD0004FF0FF0B03E0BA46BB46FF21A175BAF1D7
:103BE000000F02D1099802900BE0BAF1FF0F02D149
:103BF0000A98029005E05246DDE9091014F03EFEF5
:103C00000290BBF1000F02D1079801900BE0BBF1CD
:103C1000FF0F02D10898019005E05A46DDE9071030
:103C200014F02CFE0190B8F1000F03D1BDF8040090
:103C3000A0820FE0B8F1FF0F03D1BDF80800A08209
:103C400008E04246DDE9011014F018FE0090BDF8CE
:103C50000000A08201209CE72DE9F05F0446B4F942
:103C6000080001026162B4F90A000102A162B4F91C
:103C70000C000A2190FBF1F56F1CB4F90C0005EB68
:103C80008501A0EB4106684200B228F035F8804675
:103C9000784200B228F030F88146C5F15A0000B2EF
:103CA00028F02AF88246C7F15A0000B228F024F81A
:103CB0008346C6F10A0000FB08F009FB06000A2152
:103CC00090FBF1F1E162C6F10A0000FB0AF00BFB88
:103CD00006000A2190FBF1F12163E06A4111E162E3
:103CE000206B41112163A07C1AF063F83421095D37
:103CF00060F3000134200155A07C1AF03DF8342116
:103D0000095D60F3410134200155A07C042805D0F1
:103D1000A07C052802D0A07C062807D13420005DB5
:103D200020F00400001D3421085505E03420005D1A
:103D300020F004013420015521682162A06920F09F
:103D4000E000A061A17CA06961F30400A061A188EA
:103D5000A06961F39420A061E188A06961F35F50DC
:103D6000A061E08900EBD071491001F5001191FBD1
:103D7000F0F2A263FF21A175208AA082BDE8F09F26
:103D80002DE9F743054616460024134C27F099FB0E
:103D90008046334629462046019A1AF0B9FC074668
:103DA0005FB900BF00BF2C2120461DF0FEFA4FF086
:103DB0000040A0620020BDE8FE830020A062E06910
:103DC00018B9404627F070FBE061E06908B90120AE
:103DD000E0612046EFE70000F459002010B51421FF
:103DE000114800F0CFFA1AF045FC044600BF1CB998
:103DF00000BF00BF00BFFEE700BF14B900BF00BF97
:103E000010BD0A4920461AF01DFD094920461AF046
:103E10001BFD084920461AF019FD074920461AF0F3
:103E20000FFD00BFECE70000DC59002091DE010827
:103E300065E3010881E5010859DE010870B5044613
:103E40000D46102128461DF0B0FA206800780128A0
:103E500004D1208A2880608A68800CE0206800787D
:103E6000022802D1E068686005E020680078042834
:103E700001D10A2068602068406820B12068294686
:103E80004268904701E000BF00BF70BD2DE9FE43CE
:103E90000446A66AEEB9A18A208A084401B2A1822A
:103EA000E18A608A084401B2E18220460CF087FB77
:103EB00006460EB9BDE8FE8320460FF017FD00222E
:103EC0000921304618F040FF6078C0F3400000B18F
:103ED000F0E7208A10B9608A002870D00020029094
:103EE000019094F83C0000F00F00032812D13046F6
:103EF0001FF02EFD074630461FF0B2FC804603201F
:103F00000090B4F910103B46424630460BF04EFE8E
:103F1000029012E030461FF09DFD074630461FF02C
:103F200011FC80460C200090B4F9121043463A462A
:103F300030460BF03BFE019000BF30461FF062FCA4
:103F4000054605F0010028B9BDF90800002801DD8B
:103F50000020029005F0020028B9BDF908000028F1
:103F600001DA0020029005F0040028B9BDF9040030
:103F7000002801DD0020019005F0080028B9BDF9F6
:103F80000400002801DA0020019001AA02A92046BD
:103F90002BF0B0FD0023BDF90420BDF90810304618
:103FA00022F042FCA08ABDF80810084401B2A182A8
:103FB000E08ABDF80410084401B2E18200BF00BFEE
:103FC00078E72DE9F84F0446D4F828B0BBF1000F8C
:103FD00001D1BDE8F88F94F83C0000F00F0000B963
:103FE000F7E71AF017FF06463068477E402158462B
:103FF00021F044F910B900216183218358461FF054
:1040000015FD804658461FF01BFD054694F83C0000
:1040100000F00F000C2843D1002121831DBBB4F90F
:104020001A00C7F164014843642190FBF1F001B22A
:10403000618358461FF086FB814658461FF00AFDF3
:1040400082460C200090B4F91A104B46524658464E
:104050000BF0ACFD6083B4F91A20002319465846D2
:1040600022F0E2FB69E020462BF09BFD009000214E
:1040700061836A4620462BF03DFDBDF9003041F6D4
:10408000FF72514258460CF043FC8146BDF80000D7
:10409000484402B201230021584622F0C5FB4CE0FF
:1040A00094F83C0000F00F00032846D10021618302
:1040B000B8F1000F23D1B4F91800C7F164014843E7
:1040C000642190FBF1F001B2218358461FF0C8FB38
:1040D000814658461FF03CFC824603200090B4F90C
:1040E000181053464A4658460BF060FD2083B4F939
:1040F000181000231A46584622F096FB1DE0204671
:104100002BF034FD009000212183002269462046D7
:104110002BF0F0FCBDF9003041F6FF7251425846D9
:104120000CF05CFB8146BDF80000484401B201235D
:104130000022584622F078FB00BF208B002860D177
:10414000608B00285DD11DBB58461FF083FC814663
:1041500058461FF0F7FA8246B9F1000F02DCBAF1B7
:10416000000F14DDB9F1000F06DA01234A460021E1
:10417000584622F059FB0AE0BAF1000F07DA012392
:10418000CAF1000002B20021584622F04DFB00BFE8
:10419000B8F1000F23D158461FF062FB8146584604
:1041A0001FF0D6FB8246B9F1000F02DCBAF1000F16
:1041B00014DDB9F1000F06DA012300224946584602
:1041C00022F032FB0AE0BAF1000F07DA01230022E5
:1041D000CAF1000001B2584622F026FB00BF324669
:1041E0000A21584618F0B0FD6078C0F3400000B1D5
:1041F000EFE694F83C0020F00F0184F83C10002119
:10420000A16200BFE5E62DE9FF4104460F4614B95F
:1042100015F0C6F804460CB9BDE8FF811FB90020AF
:10422000A4F85001F8E70020ADF80800ADF80A0046
:10423000204615F0CDF8401E00B2ADF80C00204627
:1042400015F02CF9401E00B2ADF80E0002AA394656
:104250006846FEF7C9FD064606B9DDE72068007C22
:10426000C0F3400060B102982063039860630120AE
:10427000A4F85001606810B1606827F0D7FACBE766
:104280002068806918B120686946826990470025D6
:104290000BE004F1300000EBC50100226846FEF798
:1042A000E4FD00B1B8E7681C85B2B4F85001A8423B
:1042B000EFDCB4F85001202809DAB4F8502104F1F9
:1042C000300101EBC200694611F06DFF0BE00020E8
:1042D000A4F85001B4F8502104F1300101EBC20000
:1042E00002A911F060FFB4F85001401CA4F850017D
:1042F000606810B1606827F099FA00BF8CE770B56C
:104300000546284600F013F8044600260CE0214636
:10431000284600F024F806462146284600F086F894
:1043200020461CF0F7FD3446002CF0D170BD01464C
:1043300009B9002070474868FCE770B506460024BC
:104340003046FFF7F4FF054605E0641C2946304679
:1043500000F005F80546002DF7D1204670BD024655
:104360000B461068001D03441868704702460B4650
:104370001068034418687047014609B90020704767
:104380008868FCE7002242608260CA1C22F00301B8
:104390000160704770B50446216801F108001CF007
:1043A000EBFC0546A5B100222946204628F0C4FDB5
:1043B00029462046626828F0B1FD606820B12A468F
:1043C0002046616828F0B8FD6560A06800B9A56066
:1043D000284670BD70B50446216801F108001CF044
:1043E000CBFC0546A5B100222946204628F096FDC3
:1043F00029462046A26828F09FFDA06820B12A46E1
:104400002046A16828F08AFDA560606800B9656053
:10441000284670BD014609B901207047486818B99F
:10442000886808B90120F8E70020F6E72DE9F04197
:1044300004460D460CB9BDE8F0812046FFF777FF32
:10444000A8420FD129462046FFF789FF60606068C7
:1044500010B90020A0602FE000222046616828F0FB
:104460006BFD29E02046FFF787FFA8420FD12946C0
:104470002046FFF77BFFA060A06810B900206060B5
:104480001AE000222046A16828F048FD14E02946E1
:104490002046FFF76BFF064629462046FFF75FFFE1
:1044A00007463A463146204628F038FD324639461E
:1044B000204628F041FD00BF00BFBCE710B5044610
:1044C0002068806818B1206821468268904720687B
:1044D000006828B12068006820602046FFF7EEFFE2
:1044E00010BD0146886818B18868B0F91600704799
:1044F0000020FCE72DE9F04F93B005468B4691462E
:104500009A461C9E688C20F00400001D6884A5F863
:10451000209032895946284620F020FC1290A5F8B8
:1045200020A032895946284620F018FC1190688C4A
:1045300020F004006884DDE9111088420CD1DDE927
:104540001110884208D1BDF84800BDF844108842D7
:1045500002D113B0BDE8F08FA5F8209032895946FA
:10456000284620F0FBFB1290A5F820A059462846CB
:104570000DF039FF10903189109A1068129A25F0C9
:1045800010F93089602833D147F6FF7112988842BC
:1045900002D0119888422BD1284620F012FE0F90AD
:1045A00000EBD0704710284620F00BFE0F9000EB78
:1045B000D0704FEA600847F6FF711298884208D120
:1045C000781C08F10101884200DA01E008F10100DD
:1045D000129047F6FF711198884208D1781C08F1B3
:1045E0000101884200DA01E008F10100119000BFEA
:1045F0002448FFF7CFFE044600BF1CB900BF00BF30
:1046000000BFFEE700BF04B9A3E71298E06011986D
:104610002061ACB325603089A080C4F808B068463A
:1046200010F066FF2146684611F024F816496846E6
:1046300010F0E4FF1548029000BF1549684610F0DD
:10464000EFFFFF220021684611F000F8318868462C
:1046500010F0F0FF7188684610F0C8FFF06806900F
:1046600000BF6846002190F83E2061F3000280F808
:104670003E2000BF30690590684611F015F800BF74
:1046800000BF66E7E8590020CD35030879380308F4
:10469000A937030810B514210148FFF773FE10BDB8
:1046A000E85900202DE9FE4F04460F4690464FF092
:1046B000000900256BE1E06800EBC5004068C0F32D
:1046C000406000B162E1E16801EBC501496821F099
:1046D0007F4022F088FE064626EA070008B901203E
:1046E00000E00020029026EA080008B9012000E05E
:1046F00000200190DDE90101814272D0E06850F8AC
:1047000035A04FF0000B6A4641F61001504624F0E8
:10471000E1FC10B14FF0010BA9E06A4641F611012E
:10472000504624F0D7FC10B14FF0010B9FE06A46D1
:1047300041F61201504624F0CDFC10B14FF0010BB0
:1047400095E06A4641F61301504624F0C3FC10B1CF
:104750004FF0010B8BE06A4641F61501504624F0FC
:10476000B9FC10B14FF0010B81E06A4641F614012B
:10477000504624F0AFFC10B14FF0010B77E06A46D1
:1047800041F26901504624F0A5FC10B14FF0010B35
:104790006DE06A4643F20C01504624F09BFC10B1D8
:1047A0004FF0010B63E06A4643F20D01504624F0DE
:1047B00091FC10B14FF0010B59E06A4641F2010142
:1047C000504624F087FC10B14FF0010B4FE06A46D1
:1047D00041F20401504624F07DFC18B14FF0010B6A
:1047E00045E0D2E06A4641F20201504624F072FCF4
:1047F00010B14FF0010B3AE06A4641F20301504616
:1048000024F068FC10B14FF0010B30E06A4641F231
:104810000501504624F05EFC10B14FF0010B26E07C
:104820006A4641F20601504624F054FC10B14FF0A4
:10483000010B1CE06A4641F23201504624F04AFC6A
:1048400010B14FF0010B12E06A4643F60F015046DB
:1048500024F040FC10B14FF0010B08E06A4643F62B
:104860000E01504624F036FC08B14FF0010BBBF1AD
:10487000000F02D00320BDE8FE8F6A4640F60A0111
:10488000504624F027FC10B14FF002097CE06A4644
:1048900040F60B01504624F01DFC10B14FF0020908
:1048A00072E06A4643F60F01504624F013FC10B143
:1048B0004FF0020968E06A4643F60E01504624F0C4
:1048C00009FC10B14FF002095EE06A4640F63C0177
:1048D000504624F0FFFB10B14FF0020954E06A4645
:1048E00040F63D01504624F0F5FB10B14FF00209AF
:1048F0004AE06A4640F63A01504624F0EBFB10B11C
:104900004FF0020940E06A464FF40461504624F03B
:10491000E1FB10B14FF0020936E06A4640F645016E
:10492000504624F0D7FB10B14FF002092CE06A4644
:1049300040F64101504624F0CDFB10B14FF0020982
:1049400022E06A4640F64201504624F0C3FB10B113
:104950004FF0020918E06A4640F64301504624F041
:10496000B9FB10B14FF002090EE06A4640F649016A
:10497000504624F0AFFB10B14FF0020904E0B9F14A
:10498000000F01D14FF0010900BF00BF6D1C608C0A
:10499000C0F3C500A8423FF68EAE48466BE7000064
:1049A00001480068704700009C00002070470146E5
:1049B000C1F30412072A00DD0722D0B270470000BD
:1049C00010B518210348FFF7DDFC012026F046FE54
:1049D00010BD0000945900202DE9F04105460F4616
:1049E00016460DB9BDE8F0812846FBF791FE8046DA
:1049F000394628460A4A126890470746E819314660
:104A0000074A1268904706463C4603E0A019285C16
:104A10002855641CA8EB0600A042F7D200BFE1E7CE
:104A2000280200202DE9F04106460C4617461D4697
:104A300029463046084A126890472060206830B105
:104A4000296888190021044A1268904700E0002074
:104A50003860BDE8F0810000200200202DE9F04F11
:104A600087B004460F4692469846DDE910560DB1D0
:104A7000002028801CB9002007B0BDE8F08F207806
:104A800008B90020F8E70FB90020F5E74FF000095A
:104A900006F0020010B906F0040098B1002000E012
:104AA000401C215C0A2905D0215C0D2902D0215C23
:104AB0000029F5D1215C01B1401C15B14FF0FF3147
:104AC0002980D9E706F0020008B141F6FF780020FE
:104AD0000690059038E000200490059808B9012060
:104AE00000E0002006A904AACDE90062CDE9021089
:104AF0000599601843465246394627F035F98346F2
:104B00000498A8EB00000FFA80F8049848440FFAC4
:104B100080F9BBF1000F00D11CE0059858440590C6
:104B200020780A2802D020780D2800D112E00598BC
:104B3000205C0A2803D00598205C0D2803D1059835
:104B4000401C059006E000BF0598205C10B1B8F14C
:104B5000000FC0DC00BF059870B905A92046094ABE
:104B600012689047834635B100225946384618F0FE
:104B70002CFA0FFA80F900BF0DB1A5F80090059846
:104B80007AE70000200200202DE9F047064688461B
:104B9000174606B10FB9BDE8F0873046FBF7B8FD00
:104BA00081463846FBF7B4FD044604B9F3E704EB4D
:104BB000090A414630460B4A1268904780465546DE
:104BC00003E0281B305C70556D1E08EB0400A84202
:104BD000F7D906EB0800224639461CF0A0FB00BFBF
:104BE000D9E7000028020020024600200FA31B780E
:104BF0008B4211D113781BB90123137001200BE0F4
:104C00001378012B02D10023137005E01378022BD7
:104C100002D10023137001201378012B04D1202925
:104C200001D102231370012070470000230000000F
:104C300073B582B0064603980190324600210846BB
:104C4000019B27F0ADFB0546002001900024681C65
:104C50001CF092F8044600BF1CB900BF00BF00BFA3
:104C6000FEE700BF14B9002004B070BD00206055FD
:104C70003246691C2046039B27F092FB2046F3E74F
:104C80002DE9F04781460E4614461F46DDF820A068
:104C900035461BE0600800FB075529464846D047CB
:104CA000B0F1000809DD04F0010080F00100C0EB64
:104CB0005404E8190546064608E0B8F1000F02DA88
:104CC0006408354602E02846BDE8F087002CE1D1B3
:104CD0000020F9E72DE9FF4F85B08346DDE9158A0D
:104CE000DDE91349DDE91775129E05F00200F8B9F8
:104CF0004FB105F0010030B1B9F1000F02D105F05C
:104D00000C0000B17F1E03E030222046641C3254A8
:104D1000544501D2202CF7D303E030222046641CF6
:104D2000325405F0010018B1BC4201D2202CF4D35A
:104D300005F01000B0B305F4806050B94CB1544593
:104D400001D0BC4205D1641E1CB1B8F1100F00D1D6
:104D5000641EB8F1100F09D105F0200030B9202CE5
:104D600004D278222046641C325415E0B8F1100FAA
:104D700009D105F0200030B1202C04D25822204661
:104D8000641C325408E0B8F1020F05D1202C03D284
:104D900062222046641C3254202C03D2302220464A
:104DA000641C3254202C16D2B9F1000F04D02D22ED
:104DB0002046641C32540EE005F0040020B12B2282
:104DC0002046641C325406E005F0080018B1202289
:104DD0002046641C3254CDE90275CDE90064584682
:104DE00006A90EC900F0A2F809B0BDE8F08F2DE9C0
:104DF000FF4F8FB08046DDE91FABDDE91D96219D99
:104E00001C9C00270CB925F0100505F4806000B14A
:104E1000E4B100BFB4FBF6F106FB1141C8B20A28A9
:104E200002DA00F1300107E005F0200109B141216B
:104E300000E0612101440A39CBB239467F1C07AA40
:104E40005354B4FBF6F40CB1202FE3D307A8CDE9FB
:104E500004AB8DE8810203960695404610A90EC961
:104E6000FFF738FF13B0BDE8F08F2DE9FF4F8FB08B
:104E7000DDE9217BDDF89080209EDDE91C454FF0C7
:104E80000009002184EA01006940084301D128F0AB
:104E9000100808F4806028B1002184EA010069400C
:104EA00008432DD000BF32463B4620462946FBF73B
:104EB00046FA02F0FF0ABAF10A0F02DA0AF13000EC
:104EC00007E008F0200008B1412000E061205044D4
:104ED0000A38C2B2484609F1010907A90A54324604
:104EE0003B4620462946FBF72AFA04460D46002198
:104EF00084EA01006940084302D0B9F1200FD2D3FF
:104F00002398CDE9036BCDE9050807A91E98CDE9E3
:104F1000001902900FA80FC8FFF7DCFE13B0BDE820
:104F2000F08F9A4200D28854704770472DE9FF5F96
:104F300005461446DDE90EA6DDE91087A34607F015
:104F4000020078B907F0010060B9B14607E02246D7
:104F5000641C2020039B0199A84709F10109C14560
:104F6000F5D300BF08E02246641C711E0E461AF8F5
:104F70000100039B0199A847002EF4D107F002001D
:104F800050B105E02246641C2020039B0199A847EC
:104F9000A4EB0B004045F5D3204604B0BDE8F09FDC
:104FA00000BF70472DE9FF4F8BB0074600250C98D6
:104FB00000B9FA4FEAE20E98007825280AD02A466E
:104FC0006D1C0E990878DDE90C13B8470E98401C4B
:104FD0000E90DBE20E98401C0E90002400BF0E984D
:104FE00000782B2819D004DC20281ED023282CD1AF
:104FF00023E02D2809D0302827D144F001040E9851
:10500000401C0E9001200A9022E044F002040E9809
:10501000401C0E9001200A901AE044F004040E98FF
:10502000401C0E9001200A9012E044F008040E98F3
:10503000401C0E9001200A900AE044F010040E98E3
:10504000401C0E9001200A9002E000200A9000BF50
:1050500000BF0A980028C2D180460E990878FDF753
:1050600098FE20B10EA8FDF77FFE804612E00E9854
:1050700000782A280ED1189901C91891002804DA5D
:1050800044F00204C0F1000800E080460E99491C7B
:105090000E9100BF4FF000090E9800782E281FD106
:1050A00044F480640E98401C0E900E990878FDF729
:1050B00070FE20B10EA8FDF757FE814610E00E9855
:1050C00000782A280CD1189901C91891002801DD0F
:1050D000014600E0002189460E99491C0E9100BF4F
:1050E0000E9800786C280AD004DC682816D06A284C
:1050F00035D128E0742820D07A2830D129E044F432
:1051000080740E98401C0E900E9800786C2804D184
:1051100044F400740E98401C0E9021E044F080048A
:105120000E98401C0E900E980078682804D144F028
:1051300040040E98401C0E9012E044F480740E98C7
:10514000401C0E900CE044F400740E98401C0E902D
:1051500006E044F480740E98401C0E9000E000BFFE
:1051600000BF0E98007869281DD00EDC622821D07F
:1051700006DC25287ED050281AD058287BD115E08F
:10518000632879D06428F9D10CE0732875D004DC49
:105190006F280ED07028F1D109E0752804D0782846
:1051A000ECD102E000BF00BF00BF00BF00BF00BFE6
:1051B00000BF00BF0E980078782803D00E980078C2
:1051C000582801D1102623E00E980078702803D0CB
:1051D0000E98007850280CD1102644F0100444F4A6
:1051E00080740E984078562812D10E98401C0E906C
:1051F0000EE00E9800786F2801D1082608E00E987E
:105200000078622801D1022602E00A2624F0100468
:105210000E980078582803D00E980078502801D1B5
:1052200044F020040E980078692805D00E98007884
:10523000642801D024F00C0404F4806008B124F048
:1052400001040E980078692803D00E98007864282D
:105250007CD104F40070B8B31898C01D20F007008A
:105260001890D0E900AB189A083218920020CDE9C6
:10527000069803E073E17CE1F2E01CE1CDE9046013
:105280000894BAEB00017BEB000001DA012000E09A
:105290000020002102900846B1EB0A0170EB0B00E0
:1052A00002DA5046594605E000200146B0EB0A00FC
:1052B00061EB0B01CDE900012A463846DDE90C130C
:1052C000FFF7D3FD0546C7E0FFE704F48070D0B1D7
:1052D000189850F804AB18904FEADA70CDE90398AB
:1052E00002960594BAF1000F01DD514601E0CAF1C2
:1052F0000001CDE900102A463846DDE90C13FFF71E
:1053000076FD0546A8E004F0400028B1189810F892
:10531000041B1890C8B20DE004F0800028B1189862
:1053200030F8041B189008B204E018980068189927
:10533000091D189182464FEADA70CDE9039802966A
:105340000594BAF1000F02DD514602E00BE0CAF10C
:105350000001CDE900102A463846DDE90C13FFF7BD
:1053600046FD054678E00E980078562818D1189822
:1053700050F804AB1890DAF8040000680990099816
:105380000090DAF800300D98421B0C98411938460D
:10539000FFF708FE0544002009905DE02B4F000850
:1053A00004F40070D0B11898C01D20F00700CDE9BA
:1053B0000698089418900020CDE90460029018998E
:1053C00003C9189A08321892CDE900012A463846D6
:1053D000DDE90C13FFF749FD05463DE004F480705C
:1053E00098B10022CDE903980296059418980068B8
:1053F0001899091DCDE9000218912A463846DDE9C1
:105400000C13FFF7F4FC054626E004F0400028B139
:10541000189810F8041B1890C8B20DE004F0800032
:1054200028B1189830F8041B189088B204E0189836
:1054300000681899091D189182460020CDE900A046
:10544000CDE90398029605942A463846DDE90C1307
:10545000FFF7CDFC054600BF0E98401C0E9093E070
:10546000012604F0020050B905E02A466D1C2020F8
:10547000DDE90C13B8473046761C4045F5D3189942
:1054800011F8043BD8B22A466D1C1891DDE90C13C3
:10549000B84704F0020050B105E02A466D1C2020F8
:1054A000DDE90C13B8473046761C4045F5D30E981D
:1054B000401C0E9068E0189850F804AB18905046C5
:1054C000B9F1000F01D0494601E04FF0FF310A4623
:1054D000014600E0491C0B781BB1131EA2F101022A
:1054E000F8D10E1A04F4806028B14E4501D230463E
:1054F00000E04846064604F0020050B905E02A469E
:105500006D1C2020DDE90C13B8473046761C404561
:10551000F5D306E01AF8010B2A466D1CDDE90C13E1
:10552000B8479AF8000040B104F480600028F1D038
:10553000B9F10000A9F10109ECD104F0020050B169
:1055400005E02A466D1C2020DDE90C13B8473046E3
:10555000761C4045F5D30E98401C0E9014E02A4668
:105560006D1C2520DDE90C13B8470E98401C0E90E9
:105570000AE02A466D1C0E990878DDE90C13B8473D
:105580000E98401C0E9000BF00BF00BF0E98007820
:1055900000287FF410AD0D98854201D2284601E025
:1055A0000D98401E02460020DDE90C13B84728463E
:1055B0000FB0BDE8F08F2DE9F04104460E460027FC
:1055C00074B13146204600F02DF80546B5F5804F00
:1055D00005D20C2D01D9284600E00C20074600BF5B
:1055E0003846BDE8F081024600BF481E084018B1A9
:1055F00000BF00BF00BFFEE700BF481E1040101AEA
:10560000704710B502464B1E13444C1E23EA04009B
:1056100000BF4B1E0B401BB100BF00BF00BFFEE729
:1056200000BF10BD024600BF481E084018B100BFB1
:1056300000BF00BFFEE700BF481E10444B1E98434A
:10564000704700002DE9F04180460E464446012097
:105650006086002500270DE056F8270025A1FBF7FE
:105660001DF910B1681C85B202E0608E401C608696
:10567000781C87B256F8270020B156F8270000782A
:105680000028E9D1208EA84201D1BDE8F081A06AAE
:1056900020B1A06A1BF03EFC0020A062E06A20B1AD
:1056A000E06A1BF037FC0020E062E8001BF064FBBE
:1056B000A06200BFA06A18B900BF00BF00BFFEE72C
:1056C00000BF68001BF058FBE06200BFE06A18B939
:1056D00000BF00BF00BFFEE700BFA06A08B1E06ADC
:1056E00000B900256900E06A1BF05FFE258600BF57
:1056F000CBE700000A0000002DE9F84F81460E4676
:10570000924699F8090000F00700022801D13046BE
:1057100000E050468346564501DD304600E05046E5
:105720000746032000EB470020F0030000F11005BE
:105730003948006839490968A0EB0108002405EBE5
:10574000080037490968884206D23348046860680F
:1057500020F0004060603AE031480068854221D87E
:1057600013E04FF0FF300090002269462D480EF004
:105770004BFE002269462C480EF046FE2648006883
:1057800026490968A0EB010800BF08EB0500244981
:1057900009688842E5D820480468606820F0004025
:1057A000606014E028461BF0E7FA044600BF1CB90D
:1057B00000BF00BF00BFFEE700BF14B90020BDE876
:1057C000F88F606820F0004000F1004060603246D1
:1057D0005946484601F092FE2060606800F0404063
:1057E000401C6060606820F080406060A781A4F881
:1057F0000EB06068C00F20B1204600F11001A1601A
:1058000008E0054800681030A0600348006828449C
:10581000014908602046D2E7A4000020F0010020E2
:10582000A0000020A105010889440108F0B585B059
:1058300006460D463446002004900390029094F8EA
:105840003C0000F0030020B1012838D0022866D0C7
:1058500000BF94F83C0000F003005A4909788842E0
:105860001BD02620005D00EB001000EB400014214F
:1058700090FBF1F0544908702720005D00EB001008
:1058800000EB4000142190FBF1F05049087094F8AF
:105890003C0000F003004B49087002A803A9CDE9C1
:1058A000001005EB45014FF6FF7202EA410004AB20
:1058B00046490A78444909780AF048FB5FE094F8C1
:1058C0003C0000F003003F49097888421AD0A08CC0
:1058D00000EB400040024FF4B471B0FBF1F03C49E2
:1058E00008802720005D00EB001000EB4000142131
:1058F00090FBF1F03549087094F83C0000F003008B
:105900003049087002A803A9CDE90010E9B204AB40
:105910002E4802782E4800880AF018FB2FE094F8F1
:105920003C0000F003002749097888421AD0A08C77
:1059300000EB400040024FF4B471B0FBF1F0244999
:1059400008802620005D00EB001000EB40001421D1
:1059500090FBF1F01C49087094F83C0000F0030043
:105960001849087002A803A9EAB204ABCDE90010F7
:1059700015480178164800880AF0E8FA00BF00BF11
:105980009DF810009DF80C109DF80820D708BDF870
:10599000003067F304038F080093BDF8003067F30D
:1059A0004A13C7080093BDF8003067F3CF23009374
:1059B000BDF800703B460193BDF80410084605B0E1
:1059C000F0BD0000560100205401002055010020C8
:1059D0005201002010B50120074908700748FEF762
:1059E000A6FC20B90648006825F014FF03E004482F
:1059F000006825F01BFF10BDD8010020C45900200D
:105A0000DC01002010B5044694F83E00C0F34000CD
:105A100050B9A08F002807DDA08F4FF6FF71884294
:105A200002D0A08F401EA087A08FA8B9606B20B1C4
:105A300094F83E00C0F3400070B121461748FEF7CD
:105A4000F5FCFFF7C7FFE06810B12046E168884722
:105A500020461BF05FFA1FE0A06B4042E062606BE3
:105A6000D0B194F83E10C1F3400111B9216B494205
:105A7000E16294F83E104908C94394F83E2061F36E
:105A8000410284F83E20E069616AE1616062A06AD7
:105A9000616BA162606300BF10BD0000C4590020AB
:105AA0002DE9F04180464248006825F0FDFC06469D
:105AB0004048007880F001003E4908703E48FEF7FB
:105AC00036FC04466BE000203C49087094F83E0028
:105AD000C0F3800037490978884253D035480178AF
